{
  "contractName": "Marketplace",
  "abi": [
    {
      "inputs": [
        {
          "internalType": "address",
          "name": "_nftContract",
          "type": "address"
        }
      ],
      "stateMutability": "nonpayable",
      "type": "constructor"
    },
    {
      "inputs": [
        {
          "internalType": "address",
          "name": "",
          "type": "address"
        },
        {
          "internalType": "address",
          "name": "",
          "type": "address"
        },
        {
          "internalType": "uint256[]",
          "name": "",
          "type": "uint256[]"
        },
        {
          "internalType": "uint256[]",
          "name": "",
          "type": "uint256[]"
        },
        {
          "internalType": "bytes",
          "name": "",
          "type": "bytes"
        }
      ],
      "name": "onERC1155BatchReceived",
      "outputs": [
        {
          "internalType": "bytes4",
          "name": "",
          "type": "bytes4"
        }
      ],
      "stateMutability": "nonpayable",
      "type": "function"
    },
    {
      "inputs": [
        {
          "internalType": "address",
          "name": "",
          "type": "address"
        },
        {
          "internalType": "address",
          "name": "",
          "type": "address"
        },
        {
          "internalType": "uint256",
          "name": "",
          "type": "uint256"
        },
        {
          "internalType": "uint256",
          "name": "",
          "type": "uint256"
        },
        {
          "internalType": "bytes",
          "name": "",
          "type": "bytes"
        }
      ],
      "name": "onERC1155Received",
      "outputs": [
        {
          "internalType": "bytes4",
          "name": "",
          "type": "bytes4"
        }
      ],
      "stateMutability": "nonpayable",
      "type": "function"
    },
    {
      "inputs": [
        {
          "internalType": "bytes4",
          "name": "interfaceId",
          "type": "bytes4"
        }
      ],
      "name": "supportsInterface",
      "outputs": [
        {
          "internalType": "bool",
          "name": "",
          "type": "bool"
        }
      ],
      "stateMutability": "view",
      "type": "function",
      "constant": true
    },
    {
      "inputs": [
        {
          "internalType": "uint256",
          "name": "nftId",
          "type": "uint256"
        },
        {
          "internalType": "uint256",
          "name": "amount",
          "type": "uint256"
        },
        {
          "internalType": "uint256",
          "name": "price",
          "type": "uint256"
        },
        {
          "internalType": "uint256",
          "name": "royalty",
          "type": "uint256"
        }
      ],
      "name": "listNft",
      "outputs": [],
      "stateMutability": "nonpayable",
      "type": "function"
    },
    {
      "inputs": [
        {
          "internalType": "uint256",
          "name": "tokenId",
          "type": "uint256"
        },
        {
          "internalType": "uint256",
          "name": "amount",
          "type": "uint256"
        }
      ],
      "name": "buyNFT",
      "outputs": [],
      "stateMutability": "payable",
      "type": "function",
      "payable": true
    }
  ],
  "bytecode": "0x608060405260196004556103e86005553480156200001c57600080fd5b506040516200123d3803806200123d8339818101604052810190620000429190620000f4565b80600260006101000a81548173ffffffffffffffffffffffffffffffffffffffff021916908373ffffffffffffffffffffffffffffffffffffffff1602179055505062000126565b600080fd5b600073ffffffffffffffffffffffffffffffffffffffff82169050919050565b6000620000bc826200008f565b9050919050565b620000ce81620000af565b8114620000da57600080fd5b50565b600081519050620000ee81620000c3565b92915050565b6000602082840312156200010d576200010c6200008a565b5b60006200011d84828501620000dd565b91505092915050565b61110780620001366000396000f3fe60806040526004361061004a5760003560e01c806301ffc9a71461004f578063031ee48a1461008c5780631d85bf03146100b5578063bc197c81146100d1578063f23a6e611461010e575b600080fd5b34801561005b57600080fd5b5061007660048036038101906100719190610895565b61014b565b60405161008391906108dd565b60405180910390f35b34801561009857600080fd5b506100b360048036038101906100ae919061092e565b6101c5565b005b6100cf60048036038101906100ca9190610995565b6104a0565b005b3480156100dd57600080fd5b506100f860048036038101906100f39190610c41565b610771565b6040516101059190610d1f565b60405180910390f35b34801561011a57600080fd5b5061013560048036038101906101309190610d3a565b610786565b6040516101429190610d1f565b60405180910390f35b60007f4e2312e0000000000000000000000000000000000000000000000000000000007bffffffffffffffffffffffffffffffffffffffffffffffffffffffff1916827bffffffffffffffffffffffffffffffffffffffffffffffffffffffff191614806101be57506101bd8261079b565b5b9050919050565b60008411610208576040517f08c379a00000000000000000000000000000000000000000000000000000000081526004016101ff90610e2e565b60405180910390fd5b600081101561024c576040517f08c379a000000000000000000000000000000000000000000000000000000000815260040161024390610ec0565b60405180910390fd5b601d811061028f576040517f08c379a000000000000000000000000000000000000000000000000000000000815260040161028690610f2c565b60405180910390fd5b6102996000610805565b60006102a5600061081b565b90506040518061010001604052808281526020018681526020018581526020018481526020018381526020013373ffffffffffffffffffffffffffffffffffffffff1681526020013373ffffffffffffffffffffffffffffffffffffffff1681526020016000151581525060066000838152602001908152602001600020600082015181600001556020820151816001015560408201518160020155606082015181600301556080820151816004015560a08201518160050160006101000a81548173ffffffffffffffffffffffffffffffffffffffff021916908373ffffffffffffffffffffffffffffffffffffffff16021790555060c08201518160060160006101000a81548173ffffffffffffffffffffffffffffffffffffffff021916908373ffffffffffffffffffffffffffffffffffffffff16021790555060e08201518160060160146101000a81548160ff021916908315150217905550905050600260009054906101000a900473ffffffffffffffffffffffffffffffffffffffff1673ffffffffffffffffffffffffffffffffffffffff1663f242432a333088886040518563ffffffff1660e01b81526004016104679493929190610fa1565b600060405180830381600087803b15801561048157600080fd5b505af1158015610495573d6000803e3d6000fd5b505050505050505050565b600660008381526020019081526020016000206003015434146104f8576040517f08c379a00000000000000000000000000000000000000000000000000000000081526004016104ef90611045565b60405180910390fd5b6006600083815260200190815260200160002060050160009054906101000a900473ffffffffffffffffffffffffffffffffffffffff1673ffffffffffffffffffffffffffffffffffffffff163373ffffffffffffffffffffffffffffffffffffffff160361059c576040517f08c379a0000000000000000000000000000000000000000000000000000000008152600401610593906110b1565b60405180910390fd5b6006600083815260200190815260200160002060060160009054906101000a900473ffffffffffffffffffffffffffffffffffffffff1673ffffffffffffffffffffffffffffffffffffffff166108fc60066000858152602001908152602001600020600301549081150290604051600060405180830381858888f1935050505015801561062e573d6000803e3d6000fd5b50336006600084815260200190815260200160002060060160006101000a81548173ffffffffffffffffffffffffffffffffffffffff021916908373ffffffffffffffffffffffffffffffffffffffff16021790555060016006600084815260200190815260200160002060060160146101000a81548160ff0219169083151502179055506106bd6001610805565b6106d93033848460405180602001604052806000815250610786565b50600260009054906101000a900473ffffffffffffffffffffffffffffffffffffffff1673ffffffffffffffffffffffffffffffffffffffff1663f242432a303385856040518563ffffffff1660e01b815260040161073b9493929190610fa1565b600060405180830381600087803b15801561075557600080fd5b505af1158015610769573d6000803e3d6000fd5b505050505050565b600063bc197c8160e01b905095945050505050565b600063f23a6e6160e01b905095945050505050565b60007f01ffc9a7000000000000000000000000000000000000000000000000000000007bffffffffffffffffffffffffffffffffffffffffffffffffffffffff1916827bffffffffffffffffffffffffffffffffffffffffffffffffffffffff1916149050919050565b6001816000016000828254019250508190555050565b600081600001549050919050565b6000604051905090565b600080fd5b600080fd5b60007fffffffff0000000000000000000000000000000000000000000000000000000082169050919050565b6108728161083d565b811461087d57600080fd5b50565b60008135905061088f81610869565b92915050565b6000602082840312156108ab576108aa610833565b5b60006108b984828501610880565b91505092915050565b60008115159050919050565b6108d7816108c2565b82525050565b60006020820190506108f260008301846108ce565b92915050565b6000819050919050565b61090b816108f8565b811461091657600080fd5b50565b60008135905061092881610902565b92915050565b6000806000806080858703121561094857610947610833565b5b600061095687828801610919565b945050602061096787828801610919565b935050604061097887828801610919565b925050606061098987828801610919565b91505092959194509250565b600080604083850312156109ac576109ab610833565b5b60006109ba85828601610919565b92505060206109cb85828601610919565b9150509250929050565b600073ffffffffffffffffffffffffffffffffffffffff82169050919050565b6000610a00826109d5565b9050919050565b610a10816109f5565b8114610a1b57600080fd5b50565b600081359050610a2d81610a07565b92915050565b600080fd5b6000601f19601f8301169050919050565b7f4e487b7100000000000000000000000000000000000000000000000000000000600052604160045260246000fd5b610a8182610a38565b810181811067ffffffffffffffff82111715610aa057610a9f610a49565b5b80604052505050565b6000610ab3610829565b9050610abf8282610a78565b919050565b600067ffffffffffffffff821115610adf57610ade610a49565b5b602082029050602081019050919050565b600080fd5b6000610b08610b0384610ac4565b610aa9565b90508083825260208201905060208402830185811115610b2b57610b2a610af0565b5b835b81811015610b545780610b408882610919565b845260208401935050602081019050610b2d565b5050509392505050565b600082601f830112610b7357610b72610a33565b5b8135610b83848260208601610af5565b91505092915050565b600080fd5b600067ffffffffffffffff821115610bac57610bab610a49565b5b610bb582610a38565b9050602081019050919050565b82818337600083830152505050565b6000610be4610bdf84610b91565b610aa9565b905082815260208101848484011115610c0057610bff610b8c565b5b610c0b848285610bc2565b509392505050565b600082601f830112610c2857610c27610a33565b5b8135610c38848260208601610bd1565b91505092915050565b600080600080600060a08688031215610c5d57610c5c610833565b5b6000610c6b88828901610a1e565b9550506020610c7c88828901610a1e565b945050604086013567ffffffffffffffff811115610c9d57610c9c610838565b5b610ca988828901610b5e565b935050606086013567ffffffffffffffff811115610cca57610cc9610838565b5b610cd688828901610b5e565b925050608086013567ffffffffffffffff811115610cf757610cf6610838565b5b610d0388828901610c13565b9150509295509295909350565b610d198161083d565b82525050565b6000602082019050610d346000830184610d10565b92915050565b600080600080600060a08688031215610d5657610d55610833565b5b6000610d6488828901610a1e565b9550506020610d7588828901610a1e565b9450506040610d8688828901610919565b9350506060610d9788828901610919565b925050608086013567ffffffffffffffff811115610db857610db7610838565b5b610dc488828901610c13565b9150509295509295909350565b600082825260208201905092915050565b7f546f6b656e20646f65736e6f7420657869737400000000000000000000000000600082015250565b6000610e18601383610dd1565b9150610e2382610de2565b602082019050919050565b60006020820190508181036000830152610e4781610e0b565b9050919050565b7f726f79616c74792073686f756c64206265206265747765656e203020746f203360008201527f3000000000000000000000000000000000000000000000000000000000000000602082015250565b6000610eaa602183610dd1565b9150610eb582610e4e565b604082019050919050565b60006020820190508181036000830152610ed981610e9d565b9050919050565b7f726f79616c74792073686f756c64206265206c657373207468616e2033300000600082015250565b6000610f16601e83610dd1565b9150610f2182610ee0565b602082019050919050565b60006020820190508181036000830152610f4581610f09565b9050919050565b610f55816109f5565b82525050565b610f64816108f8565b82525050565b600082825260208201905092915050565b50565b6000610f8b600083610f6a565b9150610f9682610f7b565b600082019050919050565b600060a082019050610fb66000830187610f4c565b610fc36020830186610f4c565b610fd06040830185610f5b565b610fdd6060830184610f5b565b8181036080830152610fee81610f7e565b905095945050505050565b7f6d61726b65743a4e6f7420656e6f7567682066756e64732073656e7400000000600082015250565b600061102f601c83610dd1565b915061103a82610ff9565b602082019050919050565b6000602082019050818103600083015261105e81611022565b9050919050565b7f6d61726b65743a4f776e65722063616e27742062757900000000000000000000600082015250565b600061109b601683610dd1565b91506110a682611065565b602082019050919050565b600060208201905081810360008301526110ca8161108e565b905091905056fea2646970667358221220ad6004d66ce145f067b40e04df047476ff456693b3801d9615e47f923cedad2c64736f6c63430008100033",
  "immutableReferences": {},
  "source": "// SPDX-License-Identifier: MIT\npragma solidity ^0.8.4;\n\nimport \"@openzeppelin/contracts/token/ERC1155/ERC1155.sol\";\nimport \"@openzeppelin/contracts/utils/Counters.sol\";\nimport \"@openzeppelin/contracts/token/ERC1155/IERC1155.sol\";\nimport \"@openzeppelin/contracts/token/ERC1155/utils/ERC1155Holder.sol\";\n \ncontract  Marketplace is ERC1155Holder {\n\n    using Counters for Counters.Counter;\n    Counters.Counter private _tokenIds;\n    Counters.Counter private _nftSold;\n    IERC1155 private nftContract;\n    address private owner;\n    uint256 private platformFee = 25;\n    uint256 private deno = 1000;\n\n    constructor(address _nftContract) {\n        nftContract = IERC1155(_nftContract);\n    }\n\n    struct NFTMarketItem{\n        uint256 tokenId;\n        uint256 nftId;\n        uint256 amount;\n        uint256 price;\n        uint256 royalty;\n        address payable seller;\n        address payable owner;\n        bool sold;\n    }\n\n    mapping(uint256 => NFTMarketItem) private marketItem;\n\n       \n    function listNft(uint256 nftId,uint256 amount, uint256 price, uint256 royalty) external {\n\n        require(nftId > 0, \"Token doesnot exist\");\n        require(royalty >= 0, 'royalty should be between 0 to 30');\n        require(royalty < 29, 'royalty should be less than 30');\n        \n        _tokenIds.increment();\n        uint256 tokenId = _tokenIds.current();\n\n        marketItem[tokenId] = NFTMarketItem(\n            tokenId,\n            nftId,\n            amount,\n            price,\n            royalty,\n            payable(msg.sender),\n            payable(msg.sender),\n            false\n        );\n\n        IERC1155(nftContract).safeTransferFrom(msg.sender, address(this), nftId, amount, \"\");\n    }\n \n    function buyNFT(uint256 tokenId, uint256 amount) external payable {\n         require(\n            msg.value == marketItem[tokenId].price,\n            \"market:Not enough funds sent\"\n        );\n         require(\n            msg.sender != marketItem[tokenId].seller,\n            \"market:Owner can't buy\"\n        ); \n        payable( marketItem[tokenId].owner).transfer(marketItem[tokenId].price);\n        marketItem[tokenId].owner = payable(msg.sender);\n        marketItem[tokenId].sold=true;\n        _nftSold.increment();\n        onERC1155Received(address(this), msg.sender, tokenId, amount, \"\");\n        nftContract.safeTransferFrom(address(this), msg.sender, tokenId, amount, \"\");\n    }\n\n}",
  "sourcePath": "/Users/invozone/Documents/umer/untitled folder/Umer_Saleem/CompanyTask/Task2/contracts/Marketplace.sol",
  "compiler": {
    "name": "solc",
    "version": "0.8.16+commit.07a7930e.Emscripten.clang"
  },
  "schemaVersion": "3.4.9",
  "updatedAt": "2022-10-22T21:46:26.365Z",
  "networkType": "ethereum",
  "devdoc": {
    "kind": "dev",
    "methods": {
      "supportsInterface(bytes4)": {
        "details": "See {IERC165-supportsInterface}."
      }
    },
    "version": 1
  },
  "userdoc": {
    "kind": "user",
    "methods": {},
    "version": 1
  }
}