{
  "contractName": "MintingContract",
  "abi": [
    {
      "inputs": [],
      "stateMutability": "nonpayable",
      "type": "constructor"
    },
    {
      "anonymous": false,
      "inputs": [
        {
          "indexed": true,
          "internalType": "address",
          "name": "account",
          "type": "address"
        },
        {
          "indexed": true,
          "internalType": "address",
          "name": "operator",
          "type": "address"
        },
        {
          "indexed": false,
          "internalType": "bool",
          "name": "approved",
          "type": "bool"
        }
      ],
      "name": "ApprovalForAll",
      "type": "event"
    },
    {
      "anonymous": false,
      "inputs": [
        {
          "indexed": true,
          "internalType": "address",
          "name": "previousOwner",
          "type": "address"
        },
        {
          "indexed": true,
          "internalType": "address",
          "name": "newOwner",
          "type": "address"
        }
      ],
      "name": "OwnershipTransferred",
      "type": "event"
    },
    {
      "anonymous": false,
      "inputs": [
        {
          "indexed": true,
          "internalType": "address",
          "name": "operator",
          "type": "address"
        },
        {
          "indexed": true,
          "internalType": "address",
          "name": "from",
          "type": "address"
        },
        {
          "indexed": true,
          "internalType": "address",
          "name": "to",
          "type": "address"
        },
        {
          "indexed": false,
          "internalType": "uint256[]",
          "name": "ids",
          "type": "uint256[]"
        },
        {
          "indexed": false,
          "internalType": "uint256[]",
          "name": "values",
          "type": "uint256[]"
        }
      ],
      "name": "TransferBatch",
      "type": "event"
    },
    {
      "anonymous": false,
      "inputs": [
        {
          "indexed": true,
          "internalType": "address",
          "name": "operator",
          "type": "address"
        },
        {
          "indexed": true,
          "internalType": "address",
          "name": "from",
          "type": "address"
        },
        {
          "indexed": true,
          "internalType": "address",
          "name": "to",
          "type": "address"
        },
        {
          "indexed": false,
          "internalType": "uint256",
          "name": "id",
          "type": "uint256"
        },
        {
          "indexed": false,
          "internalType": "uint256",
          "name": "value",
          "type": "uint256"
        }
      ],
      "name": "TransferSingle",
      "type": "event"
    },
    {
      "anonymous": false,
      "inputs": [
        {
          "indexed": false,
          "internalType": "string",
          "name": "value",
          "type": "string"
        },
        {
          "indexed": true,
          "internalType": "uint256",
          "name": "id",
          "type": "uint256"
        }
      ],
      "name": "URI",
      "type": "event"
    },
    {
      "inputs": [
        {
          "internalType": "address",
          "name": "account",
          "type": "address"
        },
        {
          "internalType": "uint256",
          "name": "id",
          "type": "uint256"
        }
      ],
      "name": "balanceOf",
      "outputs": [
        {
          "internalType": "uint256",
          "name": "",
          "type": "uint256"
        }
      ],
      "stateMutability": "view",
      "type": "function",
      "constant": true
    },
    {
      "inputs": [
        {
          "internalType": "address[]",
          "name": "accounts",
          "type": "address[]"
        },
        {
          "internalType": "uint256[]",
          "name": "ids",
          "type": "uint256[]"
        }
      ],
      "name": "balanceOfBatch",
      "outputs": [
        {
          "internalType": "uint256[]",
          "name": "",
          "type": "uint256[]"
        }
      ],
      "stateMutability": "view",
      "type": "function",
      "constant": true
    },
    {
      "inputs": [
        {
          "internalType": "address",
          "name": "account",
          "type": "address"
        },
        {
          "internalType": "address",
          "name": "operator",
          "type": "address"
        }
      ],
      "name": "isApprovedForAll",
      "outputs": [
        {
          "internalType": "bool",
          "name": "",
          "type": "bool"
        }
      ],
      "stateMutability": "view",
      "type": "function",
      "constant": true
    },
    {
      "inputs": [],
      "name": "owner",
      "outputs": [
        {
          "internalType": "address",
          "name": "",
          "type": "address"
        }
      ],
      "stateMutability": "view",
      "type": "function",
      "constant": true
    },
    {
      "inputs": [],
      "name": "renounceOwnership",
      "outputs": [],
      "stateMutability": "nonpayable",
      "type": "function"
    },
    {
      "inputs": [
        {
          "internalType": "address",
          "name": "from",
          "type": "address"
        },
        {
          "internalType": "address",
          "name": "to",
          "type": "address"
        },
        {
          "internalType": "uint256[]",
          "name": "ids",
          "type": "uint256[]"
        },
        {
          "internalType": "uint256[]",
          "name": "amounts",
          "type": "uint256[]"
        },
        {
          "internalType": "bytes",
          "name": "data",
          "type": "bytes"
        }
      ],
      "name": "safeBatchTransferFrom",
      "outputs": [],
      "stateMutability": "nonpayable",
      "type": "function"
    },
    {
      "inputs": [
        {
          "internalType": "address",
          "name": "from",
          "type": "address"
        },
        {
          "internalType": "address",
          "name": "to",
          "type": "address"
        },
        {
          "internalType": "uint256",
          "name": "id",
          "type": "uint256"
        },
        {
          "internalType": "uint256",
          "name": "amount",
          "type": "uint256"
        },
        {
          "internalType": "bytes",
          "name": "data",
          "type": "bytes"
        }
      ],
      "name": "safeTransferFrom",
      "outputs": [],
      "stateMutability": "nonpayable",
      "type": "function"
    },
    {
      "inputs": [
        {
          "internalType": "address",
          "name": "operator",
          "type": "address"
        },
        {
          "internalType": "bool",
          "name": "approved",
          "type": "bool"
        }
      ],
      "name": "setApprovalForAll",
      "outputs": [],
      "stateMutability": "nonpayable",
      "type": "function"
    },
    {
      "inputs": [
        {
          "internalType": "bytes4",
          "name": "interfaceId",
          "type": "bytes4"
        }
      ],
      "name": "supportsInterface",
      "outputs": [
        {
          "internalType": "bool",
          "name": "",
          "type": "bool"
        }
      ],
      "stateMutability": "view",
      "type": "function",
      "constant": true
    },
    {
      "inputs": [
        {
          "internalType": "address",
          "name": "newOwner",
          "type": "address"
        }
      ],
      "name": "transferOwnership",
      "outputs": [],
      "stateMutability": "nonpayable",
      "type": "function"
    },
    {
      "inputs": [
        {
          "internalType": "uint256",
          "name": "",
          "type": "uint256"
        }
      ],
      "name": "uri",
      "outputs": [
        {
          "internalType": "string",
          "name": "",
          "type": "string"
        }
      ],
      "stateMutability": "view",
      "type": "function",
      "constant": true
    },
    {
      "inputs": [
        {
          "internalType": "string",
          "name": "newuri",
          "type": "string"
        }
      ],
      "name": "setURI",
      "outputs": [],
      "stateMutability": "nonpayable",
      "type": "function"
    },
    {
      "inputs": [
        {
          "internalType": "uint256",
          "name": "id",
          "type": "uint256"
        },
        {
          "internalType": "uint256",
          "name": "amount",
          "type": "uint256"
        }
      ],
      "name": "mint",
      "outputs": [],
      "stateMutability": "nonpayable",
      "type": "function"
    },
    {
      "inputs": [
        {
          "internalType": "address",
          "name": "to",
          "type": "address"
        },
        {
          "internalType": "uint256[]",
          "name": "ids",
          "type": "uint256[]"
        },
        {
          "internalType": "uint256[]",
          "name": "amounts",
          "type": "uint256[]"
        },
        {
          "internalType": "bytes",
          "name": "data",
          "type": "bytes"
        }
      ],
      "name": "mintBatch",
      "outputs": [],
      "stateMutability": "nonpayable",
      "type": "function"
    }
  ],
  "bytecode": "0x60806040523480156200001157600080fd5b506040518060400160405280600381526020017f4e4654000000000000000000000000000000000000000000000000000000000081525062000059816200008060201b60201c565b506200007a6200006e6200009560201b60201c565b6200009d60201b60201c565b620004c4565b8060029081620000919190620003dd565b5050565b600033905090565b6000600360009054906101000a900473ffffffffffffffffffffffffffffffffffffffff16905081600360006101000a81548173ffffffffffffffffffffffffffffffffffffffff021916908373ffffffffffffffffffffffffffffffffffffffff1602179055508173ffffffffffffffffffffffffffffffffffffffff168173ffffffffffffffffffffffffffffffffffffffff167f8be0079c531659141344cd1fd0a4f28419497f9722a3daafe3b4186f6b6457e060405160405180910390a35050565b600081519050919050565b7f4e487b7100000000000000000000000000000000000000000000000000000000600052604160045260246000fd5b7f4e487b7100000000000000000000000000000000000000000000000000000000600052602260045260246000fd5b60006002820490506001821680620001e557607f821691505b602082108103620001fb57620001fa6200019d565b5b50919050565b60008190508160005260206000209050919050565b60006020601f8301049050919050565b600082821b905092915050565b600060088302620002657fffffffffffffffffffffffffffffffffffffffffffffffffffffffffffffffff8262000226565b62000271868362000226565b95508019841693508086168417925050509392505050565b6000819050919050565b6000819050919050565b6000620002be620002b8620002b28462000289565b62000293565b62000289565b9050919050565b6000819050919050565b620002da836200029d565b620002f2620002e982620002c5565b84845462000233565b825550505050565b600090565b62000309620002fa565b62000316818484620002cf565b505050565b5b818110156200033e5762000332600082620002ff565b6001810190506200031c565b5050565b601f8211156200038d57620003578162000201565b620003628462000216565b8101602085101562000372578190505b6200038a620003818562000216565b8301826200031b565b50505b505050565b600082821c905092915050565b6000620003b26000198460080262000392565b1980831691505092915050565b6000620003cd83836200039f565b9150826002028217905092915050565b620003e88262000163565b67ffffffffffffffff8111156200040457620004036200016e565b5b620004108254620001cc565b6200041d82828562000342565b600060209050601f83116001811462000455576000841562000440578287015190505b6200044c8582620003bf565b865550620004bc565b601f198416620004658662000201565b60005b828110156200048f5784890151825560018201915060208501945060208101905062000468565b86831015620004af5784890151620004ab601f8916826200039f565b8355505b6001600288020188555050505b505050505050565b61326d80620004d46000396000f3fe608060405234801561001057600080fd5b50600436106100e95760003560e01c80634e1273f41161008c578063a22cb46511610066578063a22cb46514610246578063e985e9c514610262578063f242432a14610292578063f2fde38b146102ae576100e9565b80634e1273f4146101ee578063715018a61461021e5780638da5cb5b14610228576100e9565b80630e89341c116100c85780630e89341c1461016a5780631b2ef1ca1461019a5780631f7fdffa146101b65780632eb2c2d6146101d2576100e9565b8062fdd58e146100ee57806301ffc9a71461011e57806302fe53051461014e575b600080fd5b61010860048036038101906101039190611aeb565b6102ca565b6040516101159190611b3a565b60405180910390f35b61013860048036038101906101339190611bad565b610392565b6040516101459190611bf5565b60405180910390f35b61016860048036038101906101639190611d56565b610474565b005b610184600480360381019061017f9190611d9f565b610488565b6040516101919190611e4b565b60405180910390f35b6101b460048036038101906101af9190611e6d565b61051c565b005b6101d060048036038101906101cb9190612016565b61053b565b005b6101ec60048036038101906101e791906120d1565b610555565b005b61020860048036038101906102039190612263565b6105f6565b6040516102159190612399565b60405180910390f35b61022661070f565b005b610230610723565b60405161023d91906123ca565b60405180910390f35b610260600480360381019061025b9190612411565b61074d565b005b61027c60048036038101906102779190612451565b610763565b6040516102899190611bf5565b60405180910390f35b6102ac60048036038101906102a79190612491565b6107f7565b005b6102c860048036038101906102c39190612528565b610898565b005b60008073ffffffffffffffffffffffffffffffffffffffff168373ffffffffffffffffffffffffffffffffffffffff160361033a576040517f08c379a0000000000000000000000000000000000000000000000000000000008152600401610331906125c7565b60405180910390fd5b60008083815260200190815260200160002060008473ffffffffffffffffffffffffffffffffffffffff1673ffffffffffffffffffffffffffffffffffffffff16815260200190815260200160002054905092915050565b60007fd9b67a26000000000000000000000000000000000000000000000000000000007bffffffffffffffffffffffffffffffffffffffffffffffffffffffff1916827bffffffffffffffffffffffffffffffffffffffffffffffffffffffff1916148061045d57507f0e89341c000000000000000000000000000000000000000000000000000000007bffffffffffffffffffffffffffffffffffffffffffffffffffffffff1916827bffffffffffffffffffffffffffffffffffffffffffffffffffffffff1916145b8061046d575061046c8261091b565b5b9050919050565b61047c610985565b61048581610a03565b50565b60606002805461049790612616565b80601f01602080910402602001604051908101604052809291908181526020018280546104c390612616565b80156105105780601f106104e557610100808354040283529160200191610510565b820191906000526020600020905b8154815290600101906020018083116104f357829003601f168201915b50505050509050919050565b61053733838360405180602001604052806000815250610a16565b5050565b610543610985565b61054f84848484610bc6565b50505050565b61055d610df2565b73ffffffffffffffffffffffffffffffffffffffff168573ffffffffffffffffffffffffffffffffffffffff1614806105a357506105a28561059d610df2565b610763565b5b6105e2576040517f08c379a00000000000000000000000000000000000000000000000000000000081526004016105d9906126b9565b60405180910390fd5b6105ef8585858585610dfa565b5050505050565b6060815183511461063c576040517f08c379a00000000000000000000000000000000000000000000000000000000081526004016106339061274b565b60405180910390fd5b6000835167ffffffffffffffff81111561065957610658611c2b565b5b6040519080825280602002602001820160405280156106875781602001602082028036833780820191505090505b50905060005b8451811015610704576106d48582815181106106ac576106ab61276b565b5b60200260200101518583815181106106c7576106c661276b565b5b60200260200101516102ca565b8282815181106106e7576106e661276b565b5b602002602001018181525050806106fd906127c9565b905061068d565b508091505092915050565b610717610985565b610721600061111b565b565b6000600360009054906101000a900473ffffffffffffffffffffffffffffffffffffffff16905090565b61075f610758610df2565b83836111e1565b5050565b6000600160008473ffffffffffffffffffffffffffffffffffffffff1673ffffffffffffffffffffffffffffffffffffffff16815260200190815260200160002060008373ffffffffffffffffffffffffffffffffffffffff1673ffffffffffffffffffffffffffffffffffffffff16815260200190815260200160002060009054906101000a900460ff16905092915050565b6107ff610df2565b73ffffffffffffffffffffffffffffffffffffffff168573ffffffffffffffffffffffffffffffffffffffff16148061084557506108448561083f610df2565b610763565b5b610884576040517f08c379a000000000000000000000000000000000000000000000000000000000815260040161087b906126b9565b60405180910390fd5b610891858585858561134d565b5050505050565b6108a0610985565b600073ffffffffffffffffffffffffffffffffffffffff168173ffffffffffffffffffffffffffffffffffffffff160361090f576040517f08c379a000000000000000000000000000000000000000000000000000000000815260040161090690612883565b60405180910390fd5b6109188161111b565b50565b60007f01ffc9a7000000000000000000000000000000000000000000000000000000007bffffffffffffffffffffffffffffffffffffffffffffffffffffffff1916827bffffffffffffffffffffffffffffffffffffffffffffffffffffffff1916149050919050565b61098d610df2565b73ffffffffffffffffffffffffffffffffffffffff166109ab610723565b73ffffffffffffffffffffffffffffffffffffffff1614610a01576040517f08c379a00000000000000000000000000000000000000000000000000000000081526004016109f8906128ef565b60405180910390fd5b565b8060029081610a129190612abb565b5050565b600073ffffffffffffffffffffffffffffffffffffffff168473ffffffffffffffffffffffffffffffffffffffff1603610a85576040517f08c379a0000000000000000000000000000000000000000000000000000000008152600401610a7c90612bff565b60405180910390fd5b6000610a8f610df2565b90506000610a9c856115e8565b90506000610aa9856115e8565b9050610aba83600089858589611662565b8460008088815260200190815260200160002060008973ffffffffffffffffffffffffffffffffffffffff1673ffffffffffffffffffffffffffffffffffffffff1681526020019081526020016000206000828254610b199190612c1f565b925050819055508673ffffffffffffffffffffffffffffffffffffffff16600073ffffffffffffffffffffffffffffffffffffffff168473ffffffffffffffffffffffffffffffffffffffff167fc3d58168c5ae7397731d063d5bbf3d657854427343f4c083240f7aacaa2d0f628989604051610b97929190612c53565b60405180910390a4610bae8360008985858961166a565b610bbd83600089898989611672565b50505050505050565b600073ffffffffffffffffffffffffffffffffffffffff168473ffffffffffffffffffffffffffffffffffffffff1603610c35576040517f08c379a0000000000000000000000000000000000000000000000000000000008152600401610c2c90612bff565b60405180910390fd5b8151835114610c79576040517f08c379a0000000000000000000000000000000000000000000000000000000008152600401610c7090612cee565b60405180910390fd5b6000610c83610df2565b9050610c9481600087878787611662565b60005b8451811015610d4d57838181518110610cb357610cb261276b565b5b6020026020010151600080878481518110610cd157610cd061276b565b5b6020026020010151815260200190815260200160002060008873ffffffffffffffffffffffffffffffffffffffff1673ffffffffffffffffffffffffffffffffffffffff1681526020019081526020016000206000828254610d339190612c1f565b925050819055508080610d45906127c9565b915050610c97565b508473ffffffffffffffffffffffffffffffffffffffff16600073ffffffffffffffffffffffffffffffffffffffff168273ffffffffffffffffffffffffffffffffffffffff167f4a39dc06d4c0dbc64b70af90fd698a233a518aa5d07e595d983b8c0526c8f7fb8787604051610dc5929190612d0e565b60405180910390a4610ddc8160008787878761166a565b610deb81600087878787611849565b5050505050565b600033905090565b8151835114610e3e576040517f08c379a0000000000000000000000000000000000000000000000000000000008152600401610e3590612cee565b60405180910390fd5b600073ffffffffffffffffffffffffffffffffffffffff168473ffffffffffffffffffffffffffffffffffffffff1603610ead576040517f08c379a0000000000000000000000000000000000000000000000000000000008152600401610ea490612db7565b60405180910390fd5b6000610eb7610df2565b9050610ec7818787878787611662565b60005b8451811015611078576000858281518110610ee857610ee761276b565b5b602002602001015190506000858381518110610f0757610f0661276b565b5b60200260200101519050600080600084815260200190815260200160002060008b73ffffffffffffffffffffffffffffffffffffffff1673ffffffffffffffffffffffffffffffffffffffff16815260200190815260200160002054905081811015610fa8576040517f08c379a0000000000000000000000000000000000000000000000000000000008152600401610f9f90612e49565b60405180910390fd5b81810360008085815260200190815260200160002060008c73ffffffffffffffffffffffffffffffffffffffff1673ffffffffffffffffffffffffffffffffffffffff168152602001908152602001600020819055508160008085815260200190815260200160002060008b73ffffffffffffffffffffffffffffffffffffffff1673ffffffffffffffffffffffffffffffffffffffff168152602001908152602001600020600082825461105d9190612c1f565b9250508190555050505080611071906127c9565b9050610eca565b508473ffffffffffffffffffffffffffffffffffffffff168673ffffffffffffffffffffffffffffffffffffffff168273ffffffffffffffffffffffffffffffffffffffff167f4a39dc06d4c0dbc64b70af90fd698a233a518aa5d07e595d983b8c0526c8f7fb87876040516110ef929190612d0e565b60405180910390a461110581878787878761166a565b611113818787878787611849565b505050505050565b6000600360009054906101000a900473ffffffffffffffffffffffffffffffffffffffff16905081600360006101000a81548173ffffffffffffffffffffffffffffffffffffffff021916908373ffffffffffffffffffffffffffffffffffffffff1602179055508173ffffffffffffffffffffffffffffffffffffffff168173ffffffffffffffffffffffffffffffffffffffff167f8be0079c531659141344cd1fd0a4f28419497f9722a3daafe3b4186f6b6457e060405160405180910390a35050565b8173ffffffffffffffffffffffffffffffffffffffff168373ffffffffffffffffffffffffffffffffffffffff160361124f576040517f08c379a000000000000000000000000000000000000000000000000000000000815260040161124690612edb565b60405180910390fd5b80600160008573ffffffffffffffffffffffffffffffffffffffff1673ffffffffffffffffffffffffffffffffffffffff16815260200190815260200160002060008473ffffffffffffffffffffffffffffffffffffffff1673ffffffffffffffffffffffffffffffffffffffff16815260200190815260200160002060006101000a81548160ff0219169083151502179055508173ffffffffffffffffffffffffffffffffffffffff168373ffffffffffffffffffffffffffffffffffffffff167f17307eab39ab6107e8899845ad3d59bd9653f200f220920489ca2b5937696c31836040516113409190611bf5565b60405180910390a3505050565b600073ffffffffffffffffffffffffffffffffffffffff168473ffffffffffffffffffffffffffffffffffffffff16036113bc576040517f08c379a00000000000000000000000000000000000000000000000000000000081526004016113b390612db7565b60405180910390fd5b60006113c6610df2565b905060006113d3856115e8565b905060006113e0856115e8565b90506113f0838989858589611662565b600080600088815260200190815260200160002060008a73ffffffffffffffffffffffffffffffffffffffff1673ffffffffffffffffffffffffffffffffffffffff16815260200190815260200160002054905085811015611487576040517f08c379a000000000000000000000000000000000000000000000000000000000815260040161147e90612e49565b60405180910390fd5b85810360008089815260200190815260200160002060008b73ffffffffffffffffffffffffffffffffffffffff1673ffffffffffffffffffffffffffffffffffffffff168152602001908152602001600020819055508560008089815260200190815260200160002060008a73ffffffffffffffffffffffffffffffffffffffff1673ffffffffffffffffffffffffffffffffffffffff168152602001908152602001600020600082825461153c9190612c1f565b925050819055508773ffffffffffffffffffffffffffffffffffffffff168973ffffffffffffffffffffffffffffffffffffffff168573ffffffffffffffffffffffffffffffffffffffff167fc3d58168c5ae7397731d063d5bbf3d657854427343f4c083240f7aacaa2d0f628a8a6040516115b9929190612c53565b60405180910390a46115cf848a8a86868a61166a565b6115dd848a8a8a8a8a611672565b505050505050505050565b60606000600167ffffffffffffffff81111561160757611606611c2b565b5b6040519080825280602002602001820160405280156116355781602001602082028036833780820191505090505b509050828160008151811061164d5761164c61276b565b5b60200260200101818152505080915050919050565b505050505050565b505050505050565b6116918473ffffffffffffffffffffffffffffffffffffffff16611a20565b15611841578373ffffffffffffffffffffffffffffffffffffffff1663f23a6e6187878686866040518663ffffffff1660e01b81526004016116d7959493929190612f50565b6020604051808303816000875af192505050801561171357506040513d601f19601f820116820180604052508101906117109190612fbf565b60015b6117b85761171f612ff9565b806308c379a00361177b575061173361301b565b8061173e575061177d565b806040517f08c379a00000000000000000000000000000000000000000000000000000000081526004016117729190611e4b565b60405180910390fd5b505b6040517f08c379a00000000000000000000000000000000000000000000000000000000081526004016117af9061311d565b60405180910390fd5b63f23a6e6160e01b7bffffffffffffffffffffffffffffffffffffffffffffffffffffffff1916817bffffffffffffffffffffffffffffffffffffffffffffffffffffffff19161461183f576040517f08c379a0000000000000000000000000000000000000000000000000000000008152600401611836906131af565b60405180910390fd5b505b505050505050565b6118688473ffffffffffffffffffffffffffffffffffffffff16611a20565b15611a18578373ffffffffffffffffffffffffffffffffffffffff1663bc197c8187878686866040518663ffffffff1660e01b81526004016118ae9594939291906131cf565b6020604051808303816000875af19250505080156118ea57506040513d601f19601f820116820180604052508101906118e79190612fbf565b60015b61198f576118f6612ff9565b806308c379a003611952575061190a61301b565b806119155750611954565b806040517f08c379a00000000000000000000000000000000000000000000000000000000081526004016119499190611e4b565b60405180910390fd5b505b6040517f08c379a00000000000000000000000000000000000000000000000000000000081526004016119869061311d565b60405180910390fd5b63bc197c8160e01b7bffffffffffffffffffffffffffffffffffffffffffffffffffffffff1916817bffffffffffffffffffffffffffffffffffffffffffffffffffffffff191614611a16576040517f08c379a0000000000000000000000000000000000000000000000000000000008152600401611a0d906131af565b60405180910390fd5b505b505050505050565b6000808273ffffffffffffffffffffffffffffffffffffffff163b119050919050565b6000604051905090565b600080fd5b600080fd5b600073ffffffffffffffffffffffffffffffffffffffff82169050919050565b6000611a8282611a57565b9050919050565b611a9281611a77565b8114611a9d57600080fd5b50565b600081359050611aaf81611a89565b92915050565b6000819050919050565b611ac881611ab5565b8114611ad357600080fd5b50565b600081359050611ae581611abf565b92915050565b60008060408385031215611b0257611b01611a4d565b5b6000611b1085828601611aa0565b9250506020611b2185828601611ad6565b9150509250929050565b611b3481611ab5565b82525050565b6000602082019050611b4f6000830184611b2b565b92915050565b60007fffffffff0000000000000000000000000000000000000000000000000000000082169050919050565b611b8a81611b55565b8114611b9557600080fd5b50565b600081359050611ba781611b81565b92915050565b600060208284031215611bc357611bc2611a4d565b5b6000611bd184828501611b98565b91505092915050565b60008115159050919050565b611bef81611bda565b82525050565b6000602082019050611c0a6000830184611be6565b92915050565b600080fd5b600080fd5b6000601f19601f8301169050919050565b7f4e487b7100000000000000000000000000000000000000000000000000000000600052604160045260246000fd5b611c6382611c1a565b810181811067ffffffffffffffff82111715611c8257611c81611c2b565b5b80604052505050565b6000611c95611a43565b9050611ca18282611c5a565b919050565b600067ffffffffffffffff821115611cc157611cc0611c2b565b5b611cca82611c1a565b9050602081019050919050565b82818337600083830152505050565b6000611cf9611cf484611ca6565b611c8b565b905082815260208101848484011115611d1557611d14611c15565b5b611d20848285611cd7565b509392505050565b600082601f830112611d3d57611d3c611c10565b5b8135611d4d848260208601611ce6565b91505092915050565b600060208284031215611d6c57611d6b611a4d565b5b600082013567ffffffffffffffff811115611d8a57611d89611a52565b5b611d9684828501611d28565b91505092915050565b600060208284031215611db557611db4611a4d565b5b6000611dc384828501611ad6565b91505092915050565b600081519050919050565b600082825260208201905092915050565b60005b83811015611e06578082015181840152602081019050611deb565b60008484015250505050565b6000611e1d82611dcc565b611e278185611dd7565b9350611e37818560208601611de8565b611e4081611c1a565b840191505092915050565b60006020820190508181036000830152611e658184611e12565b905092915050565b60008060408385031215611e8457611e83611a4d565b5b6000611e9285828601611ad6565b9250506020611ea385828601611ad6565b9150509250929050565b600067ffffffffffffffff821115611ec857611ec7611c2b565b5b602082029050602081019050919050565b600080fd5b6000611ef1611eec84611ead565b611c8b565b90508083825260208201905060208402830185811115611f1457611f13611ed9565b5b835b81811015611f3d5780611f298882611ad6565b845260208401935050602081019050611f16565b5050509392505050565b600082601f830112611f5c57611f5b611c10565b5b8135611f6c848260208601611ede565b91505092915050565b600067ffffffffffffffff821115611f9057611f8f611c2b565b5b611f9982611c1a565b9050602081019050919050565b6000611fb9611fb484611f75565b611c8b565b905082815260208101848484011115611fd557611fd4611c15565b5b611fe0848285611cd7565b509392505050565b600082601f830112611ffd57611ffc611c10565b5b813561200d848260208601611fa6565b91505092915050565b600080600080608085870312156120305761202f611a4d565b5b600061203e87828801611aa0565b945050602085013567ffffffffffffffff81111561205f5761205e611a52565b5b61206b87828801611f47565b935050604085013567ffffffffffffffff81111561208c5761208b611a52565b5b61209887828801611f47565b925050606085013567ffffffffffffffff8111156120b9576120b8611a52565b5b6120c587828801611fe8565b91505092959194509250565b600080600080600060a086880312156120ed576120ec611a4d565b5b60006120fb88828901611aa0565b955050602061210c88828901611aa0565b945050604086013567ffffffffffffffff81111561212d5761212c611a52565b5b61213988828901611f47565b935050606086013567ffffffffffffffff81111561215a57612159611a52565b5b61216688828901611f47565b925050608086013567ffffffffffffffff81111561218757612186611a52565b5b61219388828901611fe8565b9150509295509295909350565b600067ffffffffffffffff8211156121bb576121ba611c2b565b5b602082029050602081019050919050565b60006121df6121da846121a0565b611c8b565b9050808382526020820190506020840283018581111561220257612201611ed9565b5b835b8181101561222b57806122178882611aa0565b845260208401935050602081019050612204565b5050509392505050565b600082601f83011261224a57612249611c10565b5b813561225a8482602086016121cc565b91505092915050565b6000806040838503121561227a57612279611a4d565b5b600083013567ffffffffffffffff81111561229857612297611a52565b5b6122a485828601612235565b925050602083013567ffffffffffffffff8111156122c5576122c4611a52565b5b6122d185828601611f47565b9150509250929050565b600081519050919050565b600082825260208201905092915050565b6000819050602082019050919050565b61231081611ab5565b82525050565b60006123228383612307565b60208301905092915050565b6000602082019050919050565b6000612346826122db565b61235081856122e6565b935061235b836122f7565b8060005b8381101561238c5781516123738882612316565b975061237e8361232e565b92505060018101905061235f565b5085935050505092915050565b600060208201905081810360008301526123b3818461233b565b905092915050565b6123c481611a77565b82525050565b60006020820190506123df60008301846123bb565b92915050565b6123ee81611bda565b81146123f957600080fd5b50565b60008135905061240b816123e5565b92915050565b6000806040838503121561242857612427611a4d565b5b600061243685828601611aa0565b9250506020612447858286016123fc565b9150509250929050565b6000806040838503121561246857612467611a4d565b5b600061247685828601611aa0565b925050602061248785828601611aa0565b9150509250929050565b600080600080600060a086880312156124ad576124ac611a4d565b5b60006124bb88828901611aa0565b95505060206124cc88828901611aa0565b94505060406124dd88828901611ad6565b93505060606124ee88828901611ad6565b925050608086013567ffffffffffffffff81111561250f5761250e611a52565b5b61251b88828901611fe8565b9150509295509295909350565b60006020828403121561253e5761253d611a4d565b5b600061254c84828501611aa0565b91505092915050565b7f455243313135353a2061646472657373207a65726f206973206e6f742061207660008201527f616c6964206f776e657200000000000000000000000000000000000000000000602082015250565b60006125b1602a83611dd7565b91506125bc82612555565b604082019050919050565b600060208201905081810360008301526125e0816125a4565b9050919050565b7f4e487b7100000000000000000000000000000000000000000000000000000000600052602260045260246000fd5b6000600282049050600182168061262e57607f821691505b602082108103612641576126406125e7565b5b50919050565b7f455243313135353a2063616c6c6572206973206e6f7420746f6b656e206f776e60008201527f6572206e6f7220617070726f7665640000000000000000000000000000000000602082015250565b60006126a3602f83611dd7565b91506126ae82612647565b604082019050919050565b600060208201905081810360008301526126d281612696565b9050919050565b7f455243313135353a206163636f756e747320616e6420696473206c656e67746860008201527f206d69736d617463680000000000000000000000000000000000000000000000602082015250565b6000612735602983611dd7565b9150612740826126d9565b604082019050919050565b6000602082019050818103600083015261276481612728565b9050919050565b7f4e487b7100000000000000000000000000000000000000000000000000000000600052603260045260246000fd5b7f4e487b7100000000000000000000000000000000000000000000000000000000600052601160045260246000fd5b60006127d482611ab5565b91507fffffffffffffffffffffffffffffffffffffffffffffffffffffffffffffffff82036128065761280561279a565b5b600182019050919050565b7f4f776e61626c653a206e6577206f776e657220697320746865207a65726f206160008201527f6464726573730000000000000000000000000000000000000000000000000000602082015250565b600061286d602683611dd7565b915061287882612811565b604082019050919050565b6000602082019050818103600083015261289c81612860565b9050919050565b7f4f776e61626c653a2063616c6c6572206973206e6f7420746865206f776e6572600082015250565b60006128d9602083611dd7565b91506128e4826128a3565b602082019050919050565b60006020820190508181036000830152612908816128cc565b9050919050565b60008190508160005260206000209050919050565b60006020601f8301049050919050565b600082821b905092915050565b6000600883026129717fffffffffffffffffffffffffffffffffffffffffffffffffffffffffffffffff82612934565b61297b8683612934565b95508019841693508086168417925050509392505050565b6000819050919050565b60006129b86129b36129ae84611ab5565b612993565b611ab5565b9050919050565b6000819050919050565b6129d28361299d565b6129e66129de826129bf565b848454612941565b825550505050565b600090565b6129fb6129ee565b612a068184846129c9565b505050565b5b81811015612a2a57612a1f6000826129f3565b600181019050612a0c565b5050565b601f821115612a6f57612a408161290f565b612a4984612924565b81016020851015612a58578190505b612a6c612a6485612924565b830182612a0b565b50505b505050565b600082821c905092915050565b6000612a9260001984600802612a74565b1980831691505092915050565b6000612aab8383612a81565b9150826002028217905092915050565b612ac482611dcc565b67ffffffffffffffff811115612add57612adc611c2b565b5b612ae78254612616565b612af2828285612a2e565b600060209050601f831160018114612b255760008415612b13578287015190505b612b1d8582612a9f565b865550612b85565b601f198416612b338661290f565b60005b82811015612b5b57848901518255600182019150602085019450602081019050612b36565b86831015612b785784890151612b74601f891682612a81565b8355505b6001600288020188555050505b505050505050565b7f455243313135353a206d696e7420746f20746865207a65726f2061646472657360008201527f7300000000000000000000000000000000000000000000000000000000000000602082015250565b6000612be9602183611dd7565b9150612bf482612b8d565b604082019050919050565b60006020820190508181036000830152612c1881612bdc565b9050919050565b6000612c2a82611ab5565b9150612c3583611ab5565b9250828201905080821115612c4d57612c4c61279a565b5b92915050565b6000604082019050612c686000830185611b2b565b612c756020830184611b2b565b9392505050565b7f455243313135353a2069647320616e6420616d6f756e7473206c656e6774682060008201527f6d69736d61746368000000000000000000000000000000000000000000000000602082015250565b6000612cd8602883611dd7565b9150612ce382612c7c565b604082019050919050565b60006020820190508181036000830152612d0781612ccb565b9050919050565b60006040820190508181036000830152612d28818561233b565b90508181036020830152612d3c818461233b565b90509392505050565b7f455243313135353a207472616e7366657220746f20746865207a65726f20616460008201527f6472657373000000000000000000000000000000000000000000000000000000602082015250565b6000612da1602583611dd7565b9150612dac82612d45565b604082019050919050565b60006020820190508181036000830152612dd081612d94565b9050919050565b7f455243313135353a20696e73756666696369656e742062616c616e636520666f60008201527f72207472616e7366657200000000000000000000000000000000000000000000602082015250565b6000612e33602a83611dd7565b9150612e3e82612dd7565b604082019050919050565b60006020820190508181036000830152612e6281612e26565b9050919050565b7f455243313135353a2073657474696e6720617070726f76616c2073746174757360008201527f20666f722073656c660000000000000000000000000000000000000000000000602082015250565b6000612ec5602983611dd7565b9150612ed082612e69565b604082019050919050565b60006020820190508181036000830152612ef481612eb8565b9050919050565b600081519050919050565b600082825260208201905092915050565b6000612f2282612efb565b612f2c8185612f06565b9350612f3c818560208601611de8565b612f4581611c1a565b840191505092915050565b600060a082019050612f6560008301886123bb565b612f7260208301876123bb565b612f7f6040830186611b2b565b612f8c6060830185611b2b565b8181036080830152612f9e8184612f17565b90509695505050505050565b600081519050612fb981611b81565b92915050565b600060208284031215612fd557612fd4611a4d565b5b6000612fe384828501612faa565b91505092915050565b60008160e01c9050919050565b600060033d11156130185760046000803e613015600051612fec565b90505b90565b600060443d106130a85761302d611a43565b60043d036004823e80513d602482011167ffffffffffffffff821117156130555750506130a8565b808201805167ffffffffffffffff81111561307357505050506130a8565b80602083010160043d0385018111156130905750505050506130a8565b61309f82602001850186611c5a565b82955050505050505b90565b7f455243313135353a207472616e7366657220746f206e6f6e204552433131353560008201527f526563656976657220696d706c656d656e746572000000000000000000000000602082015250565b6000613107603483611dd7565b9150613112826130ab565b604082019050919050565b60006020820190508181036000830152613136816130fa565b9050919050565b7f455243313135353a204552433131353552656365697665722072656a6563746560008201527f6420746f6b656e73000000000000000000000000000000000000000000000000602082015250565b6000613199602883611dd7565b91506131a48261313d565b604082019050919050565b600060208201905081810360008301526131c88161318c565b9050919050565b600060a0820190506131e460008301886123bb565b6131f160208301876123bb565b8181036040830152613203818661233b565b90508181036060830152613217818561233b565b9050818103608083015261322b8184612f17565b9050969550505050505056fea2646970667358221220c04c7f3a3dcd5777bbfe235c39e79b9ee3958f997788b280e41b530a810a7fd564736f6c63430008100033",
  "immutableReferences": {},
  "source": "// SPDX-License-Identifier: MIT\npragma solidity ^0.8.4;\n\nimport \"@openzeppelin/contracts/token/ERC1155/ERC1155.sol\";\nimport \"@openzeppelin/contracts/access/Ownable.sol\";\n\ncontract MintingContract is ERC1155, Ownable {\n    constructor() ERC1155(\"NFT\") {}\n\n    function setURI(string memory newuri) public onlyOwner {\n        _setURI(newuri);\n    }\n\n    function mint(  uint256 id, uint256 amount)\n        public\n         \n    {\n        _mint(msg.sender, id, amount, \"\");\n    }\n\n    function mintBatch(address to, uint256[] memory ids, uint256[] memory amounts, bytes memory data)\n        public\n        onlyOwner\n    {\n        _mintBatch(to, ids, amounts, data);\n    }\n}",
  "sourcePath": "/Users/invozone/Documents/umer/untitled folder/Umer_Saleem/CompanyTask/Task2/contracts/MintingContract.sol",
  "compiler": {
    "name": "solc",
    "version": "0.8.16+commit.07a7930e.Emscripten.clang"
  },
  "schemaVersion": "3.4.9",
  "updatedAt": "2022-10-22T21:46:26.351Z",
  "networkType": "ethereum",
  "devdoc": {
    "kind": "dev",
    "methods": {
      "balanceOf(address,uint256)": {
        "details": "See {IERC1155-balanceOf}. Requirements: - `account` cannot be the zero address."
      },
      "balanceOfBatch(address[],uint256[])": {
        "details": "See {IERC1155-balanceOfBatch}. Requirements: - `accounts` and `ids` must have the same length."
      },
      "isApprovedForAll(address,address)": {
        "details": "See {IERC1155-isApprovedForAll}."
      },
      "owner()": {
        "details": "Returns the address of the current owner."
      },
      "renounceOwnership()": {
        "details": "Leaves the contract without owner. It will not be possible to call `onlyOwner` functions anymore. Can only be called by the current owner. NOTE: Renouncing ownership will leave the contract without an owner, thereby removing any functionality that is only available to the owner."
      },
      "safeBatchTransferFrom(address,address,uint256[],uint256[],bytes)": {
        "details": "See {IERC1155-safeBatchTransferFrom}."
      },
      "safeTransferFrom(address,address,uint256,uint256,bytes)": {
        "details": "See {IERC1155-safeTransferFrom}."
      },
      "setApprovalForAll(address,bool)": {
        "details": "See {IERC1155-setApprovalForAll}."
      },
      "supportsInterface(bytes4)": {
        "details": "See {IERC165-supportsInterface}."
      },
      "transferOwnership(address)": {
        "details": "Transfers ownership of the contract to a new account (`newOwner`). Can only be called by the current owner."
      },
      "uri(uint256)": {
        "details": "See {IERC1155MetadataURI-uri}. This implementation returns the same URI for *all* token types. It relies on the token type ID substitution mechanism https://eips.ethereum.org/EIPS/eip-1155#metadata[defined in the EIP]. Clients calling this function must replace the `\\{id\\}` substring with the actual token type ID."
      }
    },
    "version": 1
  },
  "userdoc": {
    "kind": "user",
    "methods": {},
    "version": 1
  }
}